{
  "contractName": "WordCloud",
  "abi": [
    {
      "anonymous": false,
      "inputs": [
        {
          "indexed": false,
          "name": "word",
          "type": "string"
        },
        {
          "indexed": false,
          "name": "newSize",
          "type": "uint256"
        }
      ],
      "name": "WordSizeIncreased",
      "type": "event"
    },
    {
      "constant": false,
      "inputs": [
        {
          "name": "word",
          "type": "string"
        }
      ],
      "name": "increaseWordSize",
      "outputs": [],
      "payable": true,
      "stateMutability": "payable",
      "type": "function"
    },
    {
      "constant": true,
      "inputs": [
        {
          "name": "word",
          "type": "string"
        }
      ],
      "name": "wordSize",
      "outputs": [
        {
          "name": "",
          "type": "uint256"
        }
      ],
      "payable": false,
      "stateMutability": "view",
      "type": "function"
    }
  ],
  "bytecode": "0x6060604052336000806101000a81548173ffffffffffffffffffffffffffffffffffffffff021916908373ffffffffffffffffffffffffffffffffffffffff160217905550341561004f57600080fd5b61023f8061005e6000396000f30060606040526004361061004c576000357c0100000000000000000000000000000000000000000000000000000000900463ffffffff16806309f92a6a14610051578063337c445d14610093575b600080fd5b341561005c57600080fd5b61007d600480803590602001908201803590602001919091929050506100b6565b6040518082815260200191505060405180910390f35b6100b4600480803590602001908201803590602001919091929050506100e6565b005b60006001838360405180838380828437820191505092505050908152602001604051809103902054905092915050565b3460018383604051808383808284378201915050925050509081526020016040518091039020600082825401925050819055506000809054906101000a900473ffffffffffffffffffffffffffffffffffffffff1673ffffffffffffffffffffffffffffffffffffffff166108fc3073ffffffffffffffffffffffffffffffffffffffff16319081150290604051600060405180830381858888f19350505050151561019157600080fd5b7f4ed57fa1b9006b3655d91b922739ec74eaca6ce26e16a77900106c7a028d48d48282600185856040518083838082843782019150509250505090815260200160405180910390205460405180806020018381526020018281038252858582818152602001925080828437820191505094505050505060405180910390a150505600a165627a7a72305820fe12a28f998aff33f8f753fa4cddd1eb9f35055894002500f6cc3e5324d687c60029",
  "source": "pragma solidity ^0.4.19;\n\n// Add your message to the word cloud: https://jamespic.github.io/ether-wordcloud\n\ncontract WordCloud {\n  address guyWhoGetsPaid = msg.sender;\n  mapping (string => uint) wordSizes;\n  event WordSizeIncreased(string word, uint newSize);\n\n  function increaseWordSize(string word) external payable {\n    wordSizes[word] += msg.value;\n    guyWhoGetsPaid.transfer(this.balance);\n    WordSizeIncreased(word, wordSizes[word]);\n  }\n\n  function wordSize(string word) external view returns (uint) {\n    return wordSizes[word];\n  }\n}\n",
  "sourcePath": "/home/james/Garage/ether-wordcloud/contracts/WordCloud.sol",
  "compiler": {
    "name": "solc",
    "version": "0.4.19+commit.c4cbbb05.Emscripten.clang"
  },
  "schemaVersion": "2.0.0",
  "updatedAt": "2018-03-30T12:46:24.603Z"
}